{
  "contractName": "Splitter",
  "abi": [
    {
      "constant": true,
      "inputs": [],
      "name": "aliceOwner",
      "outputs": [
        {
          "name": "",
          "type": "address"
        }
      ],
      "payable": false,
      "stateMutability": "view",
      "type": "function"
    },
    {
      "constant": true,
      "inputs": [],
      "name": "carol",
      "outputs": [
        {
          "name": "",
          "type": "address"
        }
      ],
      "payable": false,
      "stateMutability": "view",
      "type": "function"
    },
    {
      "constant": true,
      "inputs": [],
      "name": "bob",
      "outputs": [
        {
          "name": "",
          "type": "address"
        }
      ],
      "payable": false,
      "stateMutability": "view",
      "type": "function"
    },
    {
      "inputs": [],
      "payable": true,
      "stateMutability": "payable",
      "type": "constructor"
    },
    {
      "payable": false,
      "stateMutability": "nonpayable",
      "type": "fallback"
    },
    {
      "anonymous": false,
      "inputs": [
        {
          "indexed": false,
          "name": "sender",
          "type": "address"
        },
        {
          "indexed": false,
          "name": "deposit",
          "type": "uint256"
        },
        {
          "indexed": false,
          "name": "receiver1",
          "type": "address"
        },
        {
          "indexed": false,
          "name": "receiver2",
          "type": "address"
        }
      ],
      "name": "LogDeposit",
      "type": "event"
    },
    {
      "anonymous": false,
      "inputs": [
        {
          "indexed": false,
          "name": "sender",
          "type": "address"
        }
      ],
      "name": "LogWithdrawFunds",
      "type": "event"
    },
    {
      "constant": false,
      "inputs": [
        {
          "name": "receiver1",
          "type": "address"
        },
        {
          "name": "receiver2",
          "type": "address"
        }
      ],
      "name": "deposit",
      "outputs": [
        {
          "name": "",
          "type": "bool"
        }
      ],
      "payable": true,
      "stateMutability": "payable",
      "type": "function"
    },
    {
      "constant": false,
      "inputs": [],
      "name": "withdrawFunds",
      "outputs": [
        {
          "name": "",
          "type": "uint256"
        }
      ],
      "payable": false,
      "stateMutability": "nonpayable",
      "type": "function"
    }
  ],
  "bytecode": "0x6080604052336000806101000a81548173ffffffffffffffffffffffffffffffffffffffff021916908373ffffffffffffffffffffffffffffffffffffffff160217905550610782806100536000396000f30060806040526004361061006d576000357c0100000000000000000000000000000000000000000000000000000000900463ffffffff1680631e5fae211461007c57806324600fc3146100d35780638b930f15146100fe578063c09cec7714610155578063f9609f08146101ac575b34801561007957600080fd5b50005b34801561008857600080fd5b5061009161021a565b604051808273ffffffffffffffffffffffffffffffffffffffff1673ffffffffffffffffffffffffffffffffffffffff16815260200191505060405180910390f35b3480156100df57600080fd5b506100e861023f565b6040518082815260200191505060405180910390f35b34801561010a57600080fd5b506101136104ad565b604051808273ffffffffffffffffffffffffffffffffffffffff1673ffffffffffffffffffffffffffffffffffffffff16815260200191505060405180910390f35b34801561016157600080fd5b5061016a6104d3565b604051808273ffffffffffffffffffffffffffffffffffffffff1673ffffffffffffffffffffffffffffffffffffffff16815260200191505060405180910390f35b610200600480360381019080803573ffffffffffffffffffffffffffffffffffffffff169060200190929190803573ffffffffffffffffffffffffffffffffffffffff1690602001909291905050506104f9565b604051808215151515815260200191505060405180910390f35b6000809054906101000a900473ffffffffffffffffffffffffffffffffffffffff1681565b6000600160009054906101000a900473ffffffffffffffffffffffffffffffffffffffff1673ffffffffffffffffffffffffffffffffffffffff163373ffffffffffffffffffffffffffffffffffffffff16141561037357600160009054906101000a900473ffffffffffffffffffffffffffffffffffffffff1673ffffffffffffffffffffffffffffffffffffffff166108fc6003549081150290604051600060405180830381858888f19350505050158015610301573d6000803e3d6000fd5b507ffaa2aa6edc9cf8253cab4e19d1357b2033a13cae167fe72b884d8aad2efdc31833604051808273ffffffffffffffffffffffffffffffffffffffff1673ffffffffffffffffffffffffffffffffffffffff16815260200191505060405180910390a16000600381905590506104aa565b600260009054906101000a900473ffffffffffffffffffffffffffffffffffffffff1673ffffffffffffffffffffffffffffffffffffffff163373ffffffffffffffffffffffffffffffffffffffff1614156104a557600260009054906101000a900473ffffffffffffffffffffffffffffffffffffffff1673ffffffffffffffffffffffffffffffffffffffff166108fc6004549081150290604051600060405180830381858888f19350505050158015610433573d6000803e3d6000fd5b507ffaa2aa6edc9cf8253cab4e19d1357b2033a13cae167fe72b884d8aad2efdc31833604051808273ffffffffffffffffffffffffffffffffffffffff1673ffffffffffffffffffffffffffffffffffffffff16815260200191505060405180910390a16000600481905590506104aa565b600080fd5b90565b600260009054906101000a900473ffffffffffffffffffffffffffffffffffffffff1681565b600160009054906101000a900473ffffffffffffffffffffffffffffffffffffffff1681565b60008060009054906101000a900473ffffffffffffffffffffffffffffffffffffffff1673ffffffffffffffffffffffffffffffffffffffff163373ffffffffffffffffffffffffffffffffffffffff161415156105bf576040517f08c379a000000000000000000000000000000000000000000000000000000000815260040180806020018281038252601c8152602001807f4f6e6c7920416c6963652063616e206465706f7369742045746865720000000081525060200191505060405180910390fd5b7f416c158be2b75667bf3d5ffe6837e8e3d4754dd39911a82aa9e90cee282036f533348585604051808573ffffffffffffffffffffffffffffffffffffffff1673ffffffffffffffffffffffffffffffffffffffff1681526020018481526020018373ffffffffffffffffffffffffffffffffffffffff1673ffffffffffffffffffffffffffffffffffffffff1681526020018273ffffffffffffffffffffffffffffffffffffffff1673ffffffffffffffffffffffffffffffffffffffff16815260200194505050505060405180910390a182600160006101000a81548173ffffffffffffffffffffffffffffffffffffffff021916908373ffffffffffffffffffffffffffffffffffffffff16021790555081600260006101000a81548173ffffffffffffffffffffffffffffffffffffffff021916908373ffffffffffffffffffffffffffffffffffffffff16021790555060023481151561072057fe5b0460036000828254019250508190555060023481151561073c57fe5b0460046000828254019250508190555060019050929150505600a165627a7a72305820ac2e48d80c14c53b6b068b982c0744155cb62b597c3aa41a223a7b1b424199630029",
  "source": "pragma solidity 0.4.24;\n\ncontract Splitter {\n    \n    address public aliceOwner;\n    address public bob;\n    address public carol;\n    uint256 balanceBob;\n    uint256 balanceCarol;\n    \n\n    event LogDeposit(address sender, uint256 deposit, address receiver1, address receiver2);\n    event LogWithdrawFunds(address sender);\n\t\n    constructor() public payable {\n        aliceOwner = msg.sender;\n    }\n\t\n    function deposit(address receiver1, address receiver2) public payable returns (bool){\n        require(msg.sender == aliceOwner, \"Only Alice can deposit Ether\");\n        //require(receiver1 != address(0), \"Two addresses needed\");\n        //require(receiver2 != address(0), \"Two addresses needed\");\n        emit LogDeposit(msg.sender, msg.value, receiver1, receiver2);\n        bob = receiver1;\n        carol = receiver2;\n        balanceBob += msg.value /2;\n        balanceCarol += msg.value /2;\n        return true;\n    }\n    \n    function withdrawFunds() public returns (uint256) {\n        if (msg.sender == bob) {\n            address(bob).transfer(balanceBob);\n            emit LogWithdrawFunds (msg.sender);\n            return balanceBob = 0;\n        } else if (msg.sender == carol) {\n            address(carol).transfer(balanceCarol);\n            emit LogWithdrawFunds (msg.sender);\n            return balanceCarol = 0;\n          } else {revert();}\n    }\n    \n    function() external {\n    }\n}             \n",
  "sourcePath": "/home/richard/workspace/Splitter/contracts/Splitter.sol",
  "compiler": {
    "name": "solc",
    "version": "0.4.24+commit.e67f0147.Emscripten.clang"
  },
  "schemaVersion": "2.0.1",
  "updatedAt": "2018-12-09T06:51:18.173Z"
}