{
  "contractName": "Splitter",
  "abi": [
    {
      "constant": true,
      "inputs": [],
      "name": "owner",
      "outputs": [
        {
          "name": "",
          "type": "address"
        }
      ],
      "payable": false,
      "stateMutability": "view",
      "type": "function"
    },
    {
      "constant": true,
      "inputs": [
        {
          "name": "",
          "type": "address"
        }
      ],
      "name": "balanceReceiver",
      "outputs": [
        {
          "name": "",
          "type": "uint256"
        }
      ],
      "payable": false,
      "stateMutability": "view",
      "type": "function"
    },
    {
      "constant": true,
      "inputs": [],
      "name": "state",
      "outputs": [
        {
          "name": "",
          "type": "uint8"
        }
      ],
      "payable": false,
      "stateMutability": "view",
      "type": "function"
    },
    {
      "inputs": [],
      "payable": false,
      "stateMutability": "nonpayable",
      "type": "constructor"
    },
    {
      "payable": false,
      "stateMutability": "nonpayable",
      "type": "fallback"
    },
    {
      "anonymous": false,
      "inputs": [
        {
          "indexed": true,
          "name": "sender",
          "type": "address"
        },
        {
          "indexed": false,
          "name": "depositAmount",
          "type": "uint256"
        },
        {
          "indexed": true,
          "name": "receiver1",
          "type": "address"
        },
        {
          "indexed": true,
          "name": "receiver2",
          "type": "address"
        }
      ],
      "name": "LogDeposit",
      "type": "event"
    },
    {
      "anonymous": false,
      "inputs": [
        {
          "indexed": true,
          "name": "sender",
          "type": "address"
        },
        {
          "indexed": false,
          "name": "amount",
          "type": "uint256"
        }
      ],
      "name": "LogWithdrawFunds",
      "type": "event"
    },
    {
      "anonymous": false,
      "inputs": [
        {
          "indexed": false,
          "name": "newState",
          "type": "uint8"
        }
      ],
      "name": "LogSetState",
      "type": "event"
    },
    {
      "constant": false,
      "inputs": [
        {
          "name": "newState",
          "type": "uint8"
        }
      ],
      "name": "setState",
      "outputs": [],
      "payable": false,
      "stateMutability": "nonpayable",
      "type": "function"
    },
    {
      "constant": true,
      "inputs": [],
      "name": "getContractBalance",
      "outputs": [
        {
          "name": "",
          "type": "uint256"
        }
      ],
      "payable": false,
      "stateMutability": "view",
      "type": "function"
    },
    {
      "constant": false,
      "inputs": [
        {
          "name": "_receiver1",
          "type": "address"
        },
        {
          "name": "_receiver2",
          "type": "address"
        }
      ],
      "name": "deposit",
      "outputs": [],
      "payable": true,
      "stateMutability": "payable",
      "type": "function"
    },
    {
      "constant": false,
      "inputs": [],
      "name": "withdrawFunds",
      "outputs": [],
      "payable": false,
      "stateMutability": "nonpayable",
      "type": "function"
    }
  ],
  "bytecode": "0x608060405234801561001057600080fd5b50336000806101000a81548173ffffffffffffffffffffffffffffffffffffffff021916908373ffffffffffffffffffffffffffffffffffffffff16021790555060008060146101000a81548160ff0219169083600281111561006f57fe5b0217905550610b6f806100836000396000f300608060405260043610610083576000357c0100000000000000000000000000000000000000000000000000000000900463ffffffff16806324600fc31461009557806356de96db146100ac5780636f9fb98a146100dc5780638da5cb5b14610107578063accf75d91461015e578063c19d93fb146101b5578063f9609f08146101ee575b34801561008f57600080fd5b50600080fd5b3480156100a157600080fd5b506100aa610244565b005b3480156100b857600080fd5b506100da600480360381019080803560ff16906020019092919050505061044f565b005b3480156100e857600080fd5b506100f161068d565b6040518082815260200191505060405180910390f35b34801561011357600080fd5b5061011c6106ac565b604051808273ffffffffffffffffffffffffffffffffffffffff1673ffffffffffffffffffffffffffffffffffffffff16815260200191505060405180910390f35b34801561016a57600080fd5b5061019f600480360381019080803573ffffffffffffffffffffffffffffffffffffffff1690602001909291905050506106d1565b6040518082815260200191505060405180910390f35b3480156101c157600080fd5b506101ca6106e9565b604051808260028111156101da57fe5b60ff16815260200191505060405180910390f35b610242600480360381019080803573ffffffffffffffffffffffffffffffffffffffff169060200190929190803573ffffffffffffffffffffffffffffffffffffffff1690602001909291905050506106fc565b005b60006001600281111561025357fe5b600060149054906101000a900460ff16600281111561026e57fe5b14151515610330576040517f08c379a00000000000000000000000000000000000000000000000000000000081526004018080602001828103825260428152602001807f436f6e7472616374206d757374206265206f7065726174696f6e616c206f722081526020017f646561637469766174656420746f2062652061626c6520746f2077697468647281526020017f617700000000000000000000000000000000000000000000000000000000000081525060600191505060405180910390fd5b600260003373ffffffffffffffffffffffffffffffffffffffff1673ffffffffffffffffffffffffffffffffffffffff1681526020019081526020016000205490506000600260003373ffffffffffffffffffffffffffffffffffffffff1673ffffffffffffffffffffffffffffffffffffffff168152602001908152602001600020819055503373ffffffffffffffffffffffffffffffffffffffff166108fc829081150290604051600060405180830381858888f193505050501580156103fd573d6000803e3d6000fd5b503373ffffffffffffffffffffffffffffffffffffffff167f333d9f35320f28a9518fc6083975ac7d7465f020712cda7608ca073ea651f264826040518082815260200191505060405180910390a250565b6000809054906101000a900473ffffffffffffffffffffffffffffffffffffffff1673ffffffffffffffffffffffffffffffffffffffff163373ffffffffffffffffffffffffffffffffffffffff16141515610539576040517f08c379a00000000000000000000000000000000000000000000000000000000081526004018080602001828103825260228152602001807f4f6e6c79206f776e65722063616e20706572666f726d2074686973206163746981526020017f6f6e00000000000000000000000000000000000000000000000000000000000081525060400191505060405180910390fd5b60028081111561054557fe5b600060149054906101000a900460ff16600281111561056057fe5b14151515610622576040517f08c379a00000000000000000000000000000000000000000000000000000000081526004018080602001828103825260438152602001807f54686520636f6e747261637420697320646561637469766174656420616e642081526020017f63616e2774206265206d616465206f7065726174696f6e616c206f722070617581526020017f736564000000000000000000000000000000000000000000000000000000000081525060600191505060405180910390fd5b80600060146101000a81548160ff0219169083600281111561064057fe5b02179055507fe2790cd63da1bf244f04aa9006ff50a6d97434ea6ca1153582f3dcd96d779ab5816040518082600281111561067757fe5b60ff16815260200191505060405180910390a150565b60003073ffffffffffffffffffffffffffffffffffffffff1631905090565b6000809054906101000a900473ffffffffffffffffffffffffffffffffffffffff1681565b60026020528060005260406000206000915090505481565b600060149054906101000a900460ff1681565b6000600281111561070957fe5b600060149054906101000a900460ff16600281111561072457fe5b141515610799576040517f08c379a000000000000000000000000000000000000000000000000000000000815260040180806020018281038252601b8152602001807f436f6e7472616374206973206e6f74206f7065726174696f6e616c000000000081525060200191505060405180910390fd5b600073ffffffffffffffffffffffffffffffffffffffff168273ffffffffffffffffffffffffffffffffffffffff161415151561083e576040517f08c379a000000000000000000000000000000000000000000000000000000000815260040180806020018281038252601a8152602001807f4d7573742070726f766964652074776f2061646472657373657300000000000081525060200191505060405180910390fd5b600073ffffffffffffffffffffffffffffffffffffffff168173ffffffffffffffffffffffffffffffffffffffff16141515156108e3576040517f08c379a000000000000000000000000000000000000000000000000000000000815260040180806020018281038252601a8152602001807f4d7573742070726f766964652074776f2061646472657373657300000000000081525060200191505060405180910390fd5b8073ffffffffffffffffffffffffffffffffffffffff168273ffffffffffffffffffffffffffffffffffffffff16141515156109ad576040517f08c379a00000000000000000000000000000000000000000000000000000000081526004018080602001828103825260228152602001807f4d7573742070726f76696465203220646966666572656e74206164647265737381526020017f657300000000000000000000000000000000000000000000000000000000000081525060400191505060405180910390fd5b60006002348115156109bb57fe5b06141515610a12576001600260003373ffffffffffffffffffffffffffffffffffffffff1673ffffffffffffffffffffffffffffffffffffffff168152602001908152602001600020600082825401925050819055505b600234811515610a1e57fe5b04600181905550600154600260008473ffffffffffffffffffffffffffffffffffffffff1673ffffffffffffffffffffffffffffffffffffffff16815260200190815260200160002060008282540192505081905550600154600260008373ffffffffffffffffffffffffffffffffffffffff1673ffffffffffffffffffffffffffffffffffffffff168152602001908152602001600020600082825401925050819055508073ffffffffffffffffffffffffffffffffffffffff168273ffffffffffffffffffffffffffffffffffffffff163373ffffffffffffffffffffffffffffffffffffffff167f416c158be2b75667bf3d5ffe6837e8e3d4754dd39911a82aa9e90cee282036f5346040518082815260200191505060405180910390a450505600a165627a7a72305820495868633be4b366051e3f9c0a498caaa9284dfade7c878c7caefe7d4b0f83a20029",
  "source": "pragma solidity 0.4.24;\n\ncontract Splitter {\n    \n    //Global Variables\n    address public owner;\n    SplitterState public state;\n    uint256 half;\n\n    //Constructor, setting initial properties\n    constructor() public {\n        owner = msg.sender;\n        state = SplitterState.Operational;\n    }\n\n    //Modifiers\n    modifier onlyOwner {\n        require(msg.sender == owner, \"Only owner can perform this action\");\n        _;\n    }\n\n    //Defining the possible states of the contract\n    enum SplitterState {\n        Operational,\n        Paused,\n        Deactivated\n    }\n    \n    //All events that can be logged\n    event LogDeposit(address indexed sender, uint256 depositAmount, address indexed receiver1, address indexed receiver2);\n    event LogWithdrawFunds(address indexed sender, uint amount);\n    event LogSetState(SplitterState newState);\n    \n    //Mapping of address to balance\n    mapping(address => uint256) public balanceReceiver;\n\n    //Function that allows owner to change the state of the contract\n    function setState(SplitterState newState) public onlyOwner {\n        //Verify if the state is Deactivated, if so, don't allow update to the state;\n        require(state != SplitterState.Deactivated, \"The contract is deactivated and can't be made operational or paused\");\n        //Set the state of the Contract\n        state = newState;\n        //Create logs\n        emit LogSetState(newState);\n    }\n\n    //Function that allows UI to query the balance of the contract\n    function getContractBalance() public view returns (uint256) {\n        return address(this).balance;\n    }   \n    \n    //Allows the message sender to send Ether to the contract and have it assigned to the balance of two receiver addresses\n    function deposit(address _receiver1, address _receiver2) public payable {\n        // Verify that the contract is operational before continueing\n        require(state == SplitterState.Operational, \"Contract is not operational\");\n        // Verify non empty addresses have been provided\n        require(_receiver1 != address(0), \"Must provide two addresses\");\n        require(_receiver2 != address(0), \"Must provide two addresses\");\n        // Verify receiver 1 address is not equal to receiver2 address  \n        require(_receiver1 != _receiver2, \"Must provide 2 different addresses\");\n        // If the msg.value is an uneven number\n        if (msg.value % 2 != 0) {\n            // Credit 1 wei to the address of the sender\n            balanceReceiver[msg.sender] += 1; \n        }\n        // Remaining msg.value to be split between _receiver1 and _receiver2\n        // If the msg.value is an uneven number, msg.value will be divided by two and the remainder will disappear\n        half = msg.value / 2;\n        balanceReceiver[_receiver1] += half;\n        balanceReceiver[_receiver2] += half;\n        emit LogDeposit(msg.sender, msg.value, _receiver1, _receiver2);\n    }\n\n    //Allow the message sender to retrieve his/her funds\n    function withdrawFunds() public {\n        // Verify that the contract isn't paused\n        require(state != SplitterState.Paused, \"Contract must be operational or deactivated to be able to withdraw\");\n        // Set the balance of the msg.sender to 0\n        uint256 amountForWithdrawal = balanceReceiver[msg.sender];\n        balanceReceiver[msg.sender] = 0;\n        // Transfer the balance to the msg.sender\n        address(msg.sender).transfer(amountForWithdrawal);\n        // Create logs\n        emit LogWithdrawFunds (msg.sender, amountForWithdrawal);\n    }    \n    \n    //Fallback function which rejects funds sent to the contract address if sender is not the owner\n    function() public { revert(); \n    }  \n}",
  "sourcePath": "/home/richard/workspace/Splitter/contracts/Splitter.sol",
  "compiler": {
    "name": "solc",
    "version": "0.4.24+commit.e67f0147.Emscripten.clang"
  },
  "schemaVersion": "2.0.1",
  "updatedAt": "2019-01-17T03:38:47.794Z"
}