{
  "contractName": "Splitter",
  "abi": [
    {
      "constant": true,
      "inputs": [],
      "name": "aliceOwner",
      "outputs": [
        {
          "name": "",
          "type": "address"
        }
      ],
      "payable": false,
      "stateMutability": "view",
      "type": "function"
    },
    {
      "constant": true,
      "inputs": [],
      "name": "carol",
      "outputs": [
        {
          "name": "",
          "type": "address"
        }
      ],
      "payable": false,
      "stateMutability": "view",
      "type": "function"
    },
    {
      "constant": true,
      "inputs": [],
      "name": "bob",
      "outputs": [
        {
          "name": "",
          "type": "address"
        }
      ],
      "payable": false,
      "stateMutability": "view",
      "type": "function"
    },
    {
      "inputs": [],
      "payable": true,
      "stateMutability": "payable",
      "type": "constructor"
    },
    {
      "payable": false,
      "stateMutability": "nonpayable",
      "type": "fallback"
    },
    {
      "anonymous": false,
      "inputs": [
        {
          "indexed": false,
          "name": "sender",
          "type": "address"
        },
        {
          "indexed": false,
          "name": "deposit",
          "type": "uint256"
        },
        {
          "indexed": false,
          "name": "receiver1",
          "type": "address"
        },
        {
          "indexed": false,
          "name": "receiver2",
          "type": "address"
        }
      ],
      "name": "LogDeposit",
      "type": "event"
    },
    {
      "anonymous": false,
      "inputs": [
        {
          "indexed": false,
          "name": "sender",
          "type": "address"
        }
      ],
      "name": "LogWithdrawFunds",
      "type": "event"
    },
    {
      "constant": true,
      "inputs": [],
      "name": "getContractBalance",
      "outputs": [
        {
          "name": "",
          "type": "uint256"
        }
      ],
      "payable": false,
      "stateMutability": "view",
      "type": "function"
    },
    {
      "constant": false,
      "inputs": [
        {
          "name": "receiver1",
          "type": "address"
        },
        {
          "name": "receiver2",
          "type": "address"
        }
      ],
      "name": "deposit",
      "outputs": [
        {
          "name": "",
          "type": "bool"
        }
      ],
      "payable": true,
      "stateMutability": "payable",
      "type": "function"
    },
    {
      "constant": false,
      "inputs": [],
      "name": "withdrawFunds",
      "outputs": [
        {
          "name": "",
          "type": "uint256"
        }
      ],
      "payable": false,
      "stateMutability": "nonpayable",
      "type": "function"
    }
  ],
  "bytecode": "0x6080604052336000806101000a81548173ffffffffffffffffffffffffffffffffffffffff021916908373ffffffffffffffffffffffffffffffffffffffff16021790555061092b806100536000396000f300608060405260043610610078576000357c0100000000000000000000000000000000000000000000000000000000900463ffffffff1680631e5fae211461008757806324600fc3146100de5780636f9fb98a146101095780638b930f1514610134578063c09cec771461018b578063f9609f08146101e2575b34801561008457600080fd5b50005b34801561009357600080fd5b5061009c610250565b604051808273ffffffffffffffffffffffffffffffffffffffff1673ffffffffffffffffffffffffffffffffffffffff16815260200191505060405180910390f35b3480156100ea57600080fd5b506100f3610275565b6040518082815260200191505060405180910390f35b34801561011557600080fd5b5061011e6104ed565b6040518082815260200191505060405180910390f35b34801561014057600080fd5b5061014961050c565b604051808273ffffffffffffffffffffffffffffffffffffffff1673ffffffffffffffffffffffffffffffffffffffff16815260200191505060405180910390f35b34801561019757600080fd5b506101a0610532565b604051808273ffffffffffffffffffffffffffffffffffffffff1673ffffffffffffffffffffffffffffffffffffffff16815260200191505060405180910390f35b610236600480360381019080803573ffffffffffffffffffffffffffffffffffffffff169060200190929190803573ffffffffffffffffffffffffffffffffffffffff169060200190929190505050610558565b604051808215151515815260200191505060405180910390f35b6000809054906101000a900473ffffffffffffffffffffffffffffffffffffffff1681565b600080600060035491506004549050600160009054906101000a900473ffffffffffffffffffffffffffffffffffffffff1673ffffffffffffffffffffffffffffffffffffffff163373ffffffffffffffffffffffffffffffffffffffff1614156103b3576000600381905550600160009054906101000a900473ffffffffffffffffffffffffffffffffffffffff1673ffffffffffffffffffffffffffffffffffffffff166108fc839081150290604051600060405180830381858888f1935050505015801561034a573d6000803e3d6000fd5b507ffaa2aa6edc9cf8253cab4e19d1357b2033a13cae167fe72b884d8aad2efdc31833604051808273ffffffffffffffffffffffffffffffffffffffff1673ffffffffffffffffffffffffffffffffffffffff16815260200191505060405180910390a16104e8565b600260009054906101000a900473ffffffffffffffffffffffffffffffffffffffff1673ffffffffffffffffffffffffffffffffffffffff163373ffffffffffffffffffffffffffffffffffffffff1614156104e2576000600481905550600260009054906101000a900473ffffffffffffffffffffffffffffffffffffffff1673ffffffffffffffffffffffffffffffffffffffff166108fc829081150290604051600060405180830381858888f19350505050158015610479573d6000803e3d6000fd5b507ffaa2aa6edc9cf8253cab4e19d1357b2033a13cae167fe72b884d8aad2efdc31833604051808273ffffffffffffffffffffffffffffffffffffffff1673ffffffffffffffffffffffffffffffffffffffff16815260200191505060405180910390a16104e7565b600080fd5b5b505090565b60003073ffffffffffffffffffffffffffffffffffffffff1631905090565b600260009054906101000a900473ffffffffffffffffffffffffffffffffffffffff1681565b600160009054906101000a900473ffffffffffffffffffffffffffffffffffffffff1681565b60008060009054906101000a900473ffffffffffffffffffffffffffffffffffffffff1673ffffffffffffffffffffffffffffffffffffffff163373ffffffffffffffffffffffffffffffffffffffff1614151561061e576040517f08c379a000000000000000000000000000000000000000000000000000000000815260040180806020018281038252601c8152602001807f4f6e6c7920416c6963652063616e206465706f7369742045746865720000000081525060200191505060405180910390fd5b600073ffffffffffffffffffffffffffffffffffffffff168373ffffffffffffffffffffffffffffffffffffffff16141515156106c3576040517f08c379a000000000000000000000000000000000000000000000000000000000815260040180806020018281038252601a8152602001807f4d7573742070726f766964652074776f2061646472657373657300000000000081525060200191505060405180910390fd5b600073ffffffffffffffffffffffffffffffffffffffff168273ffffffffffffffffffffffffffffffffffffffff1614151515610768576040517f08c379a000000000000000000000000000000000000000000000000000000000815260040180806020018281038252601a8152602001807f4d7573742070726f766964652074776f2061646472657373657300000000000081525060200191505060405180910390fd5b7f416c158be2b75667bf3d5ffe6837e8e3d4754dd39911a82aa9e90cee282036f533348585604051808573ffffffffffffffffffffffffffffffffffffffff1673ffffffffffffffffffffffffffffffffffffffff1681526020018481526020018373ffffffffffffffffffffffffffffffffffffffff1673ffffffffffffffffffffffffffffffffffffffff1681526020018273ffffffffffffffffffffffffffffffffffffffff1673ffffffffffffffffffffffffffffffffffffffff16815260200194505050505060405180910390a182600160006101000a81548173ffffffffffffffffffffffffffffffffffffffff021916908373ffffffffffffffffffffffffffffffffffffffff16021790555081600260006101000a81548173ffffffffffffffffffffffffffffffffffffffff021916908373ffffffffffffffffffffffffffffffffffffffff1602179055506002348115156108c957fe5b046003600082825401925050819055506002348115156108e557fe5b0460046000828254019250508190555060019050929150505600a165627a7a72305820abe65841606db9216840f35a775c3e1d71d9dedf29079a0f1759d5e70a7be7d30029",
  "source": "pragma solidity 0.4.24;\n\ncontract Splitter {\n    \n    address public aliceOwner;\n    address public bob;\n    address public carol;\n    uint256 balanceBob;\n    uint256 balanceCarol;\n    \n\n    event LogDeposit(address sender, uint256 deposit, address receiver1, address receiver2);\n    event LogWithdrawFunds(address sender);\n\t\n    constructor() public payable {\n        aliceOwner = msg.sender;\n    }\n\t\n    function getContractBalance() public view returns (uint256) {\n        return address(this).balance;\n    }\n\n\n    function deposit(address receiver1, address receiver2) public payable returns (bool){\n        require(msg.sender == aliceOwner, \"Only Alice can deposit Ether\");\n        require(receiver1 != address(0), \"Must provide two addresses\");\n        require(receiver2 != address(0), \"Must provide two addresses\");\n        emit LogDeposit(msg.sender, msg.value, receiver1, receiver2);\n        bob = receiver1;\n        carol = receiver2;\n        balanceBob += msg.value /2;\n        balanceCarol += msg.value /2;\n        return true;\n    }\n    \n    function withdrawFunds() public returns (uint256) {\n        uint amountBob = balanceBob;\n        uint amountCarol = balanceCarol;\n        if (msg.sender == bob) {\n            balanceBob = 0;    \n            address(bob).transfer(amountBob);\n            emit LogWithdrawFunds (msg.sender);\n        } else if (msg.sender == carol) {\n            balanceCarol = 0;\n            address(carol).transfer(amountCarol);\n            emit LogWithdrawFunds (msg.sender);\n          } else { revert(); }\n    }\n    \n    function() external {\n    }\n}           \n",
  "sourcePath": "/home/richard/workspace/Splitter/contracts/Splitter.sol",
  "compiler": {
    "name": "solc",
    "version": "0.4.24+commit.e67f0147.Emscripten.clang"
  },
  "schemaVersion": "2.0.1",
  "updatedAt": "2018-12-17T01:15:48.899Z"
}