{
  "contractName": "Splitter",
  "abi": [
    {
      "constant": false,
      "inputs": [
        {
          "name": "newState",
          "type": "uint8"
        }
      ],
      "name": "setState",
      "outputs": [],
      "payable": false,
      "stateMutability": "nonpayable",
      "type": "function"
    },
    {
      "constant": true,
      "inputs": [],
      "name": "getOwner",
      "outputs": [
        {
          "name": "",
          "type": "address"
        }
      ],
      "payable": false,
      "stateMutability": "view",
      "type": "function"
    },
    {
      "constant": false,
      "inputs": [
        {
          "name": "_newOwner",
          "type": "address"
        }
      ],
      "name": "changeOwner",
      "outputs": [],
      "payable": false,
      "stateMutability": "nonpayable",
      "type": "function"
    },
    {
      "constant": true,
      "inputs": [
        {
          "name": "",
          "type": "address"
        }
      ],
      "name": "balanceReceiver",
      "outputs": [
        {
          "name": "",
          "type": "uint256"
        }
      ],
      "payable": false,
      "stateMutability": "view",
      "type": "function"
    },
    {
      "constant": true,
      "inputs": [],
      "name": "state",
      "outputs": [
        {
          "name": "",
          "type": "uint8"
        }
      ],
      "payable": false,
      "stateMutability": "view",
      "type": "function"
    },
    {
      "payable": false,
      "stateMutability": "nonpayable",
      "type": "fallback"
    },
    {
      "anonymous": false,
      "inputs": [
        {
          "indexed": true,
          "name": "sender",
          "type": "address"
        },
        {
          "indexed": false,
          "name": "depositAmount",
          "type": "uint256"
        },
        {
          "indexed": true,
          "name": "receiver1",
          "type": "address"
        },
        {
          "indexed": true,
          "name": "receiver2",
          "type": "address"
        }
      ],
      "name": "LogDeposit",
      "type": "event"
    },
    {
      "anonymous": false,
      "inputs": [
        {
          "indexed": true,
          "name": "sender",
          "type": "address"
        },
        {
          "indexed": false,
          "name": "amount",
          "type": "uint256"
        }
      ],
      "name": "LogWithdrawFunds",
      "type": "event"
    },
    {
      "anonymous": false,
      "inputs": [
        {
          "indexed": true,
          "name": "sender",
          "type": "address"
        },
        {
          "indexed": true,
          "name": "newState",
          "type": "uint8"
        }
      ],
      "name": "LogSetState",
      "type": "event"
    },
    {
      "anonymous": false,
      "inputs": [
        {
          "indexed": true,
          "name": "oldOwner",
          "type": "address"
        },
        {
          "indexed": true,
          "name": "newOwner",
          "type": "address"
        }
      ],
      "name": "LogChangeOwner",
      "type": "event"
    },
    {
      "constant": true,
      "inputs": [],
      "name": "getContractBalance",
      "outputs": [
        {
          "name": "",
          "type": "uint256"
        }
      ],
      "payable": false,
      "stateMutability": "view",
      "type": "function"
    },
    {
      "constant": false,
      "inputs": [
        {
          "name": "_receiver1",
          "type": "address"
        },
        {
          "name": "_receiver2",
          "type": "address"
        }
      ],
      "name": "deposit",
      "outputs": [],
      "payable": true,
      "stateMutability": "payable",
      "type": "function"
    },
    {
      "constant": false,
      "inputs": [],
      "name": "withdrawFunds",
      "outputs": [],
      "payable": false,
      "stateMutability": "nonpayable",
      "type": "function"
    }
  ],
  "bytecode": "0x6080604052336000806101000a81548173ffffffffffffffffffffffffffffffffffffffff021916908373ffffffffffffffffffffffffffffffffffffffff16021790555060008060146101000a81548160ff0219169083600281111561006257fe5b0217905550610e43806100766000396000f30060806040526004361061008e576000357c0100000000000000000000000000000000000000000000000000000000900463ffffffff16806324600fc31461010957806356de96db146101205780636f9fb98a14610150578063893d20e81461017b578063a6f9dae1146101d2578063accf75d914610215578063c19d93fb1461026c578063f9609f08146102a5575b34801561009a57600080fd5b506040517f08c379a000000000000000000000000000000000000000000000000000000000815260040180806020018281038252601b8152602001807f46616c6c6261636b2066756e6374696f6e20747269676765726564000000000081525060200191505060405180910390fd5b34801561011557600080fd5b5061011e6102fb565b005b34801561012c57600080fd5b5061014e600480360381019080803560ff169060200190929190505050610506565b005b34801561015c57600080fd5b5061016561074e565b6040518082815260200191505060405180910390f35b34801561018757600080fd5b5061019061076d565b604051808273ffffffffffffffffffffffffffffffffffffffff1673ffffffffffffffffffffffffffffffffffffffff16815260200191505060405180910390f35b3480156101de57600080fd5b50610213600480360381019080803573ffffffffffffffffffffffffffffffffffffffff169060200190929190505050610796565b005b34801561022157600080fd5b50610256600480360381019080803573ffffffffffffffffffffffffffffffffffffffff1690602001909291905050506109ac565b6040518082815260200191505060405180910390f35b34801561027857600080fd5b506102816109c4565b6040518082600281111561029157fe5b60ff16815260200191505060405180910390f35b6102f9600480360381019080803573ffffffffffffffffffffffffffffffffffffffff169060200190929190803573ffffffffffffffffffffffffffffffffffffffff1690602001909291905050506109d7565b005b60006001600281111561030a57fe5b600060149054906101000a900460ff16600281111561032557fe5b141515156103e7576040517f08c379a00000000000000000000000000000000000000000000000000000000081526004018080602001828103825260428152602001807f436f6e7472616374206d757374206265206f7065726174696f6e616c206f722081526020017f646561637469766174656420746f2062652061626c6520746f2077697468647281526020017f617700000000000000000000000000000000000000000000000000000000000081525060600191505060405180910390fd5b600160003373ffffffffffffffffffffffffffffffffffffffff1673ffffffffffffffffffffffffffffffffffffffff1681526020019081526020016000205490506000600160003373ffffffffffffffffffffffffffffffffffffffff1673ffffffffffffffffffffffffffffffffffffffff168152602001908152602001600020819055503373ffffffffffffffffffffffffffffffffffffffff166108fc829081150290604051600060405180830381858888f193505050501580156104b4573d6000803e3d6000fd5b503373ffffffffffffffffffffffffffffffffffffffff167f333d9f35320f28a9518fc6083975ac7d7465f020712cda7608ca073ea651f264826040518082815260200191505060405180910390a250565b6000809054906101000a900473ffffffffffffffffffffffffffffffffffffffff1673ffffffffffffffffffffffffffffffffffffffff163373ffffffffffffffffffffffffffffffffffffffff161415156105f0576040517f08c379a00000000000000000000000000000000000000000000000000000000081526004018080602001828103825260228152602001807f4f6e6c79206f776e65722063616e20706572666f726d2074686973206163746981526020017f6f6e00000000000000000000000000000000000000000000000000000000000081525060400191505060405180910390fd5b6002808111156105fc57fe5b600060149054906101000a900460ff16600281111561061757fe5b141515156106d9576040517f08c379a00000000000000000000000000000000000000000000000000000000081526004018080602001828103825260438152602001807f54686520636f6e747261637420697320646561637469766174656420616e642081526020017f63616e2774206265206d616465206f7065726174696f6e616c206f722070617581526020017f736564000000000000000000000000000000000000000000000000000000000081525060600191505060405180910390fd5b80600060146101000a81548160ff021916908360028111156106f757fe5b021790555080600281111561070857fe5b3373ffffffffffffffffffffffffffffffffffffffff167f8443aae512b274bfa1e5d65661bd8f0b4ffbc66eee3556711cce411fcf30478460405160405180910390a350565b60003073ffffffffffffffffffffffffffffffffffffffff1631905090565b60008060009054906101000a900473ffffffffffffffffffffffffffffffffffffffff16905090565b6000809054906101000a900473ffffffffffffffffffffffffffffffffffffffff1673ffffffffffffffffffffffffffffffffffffffff163373ffffffffffffffffffffffffffffffffffffffff16141515610880576040517f08c379a00000000000000000000000000000000000000000000000000000000081526004018080602001828103825260228152602001807f4f6e6c79206f776e65722063616e20706572666f726d2074686973206163746981526020017f6f6e00000000000000000000000000000000000000000000000000000000000081525060400191505060405180910390fd5b60008173ffffffffffffffffffffffffffffffffffffffff161415151561090f576040517f08c379a00000000000000000000000000000000000000000000000000000000081526004018080602001828103825260138152602001807f4e6f20616464726573732070726f76696465640000000000000000000000000081525060200191505060405180910390fd5b806000806101000a81548173ffffffffffffffffffffffffffffffffffffffff021916908373ffffffffffffffffffffffffffffffffffffffff1602179055508073ffffffffffffffffffffffffffffffffffffffff163373ffffffffffffffffffffffffffffffffffffffff167f96b36bedce75759b139551b10b3d2e1e863dbbfbdc30f9f9e374bb24431d5da260405160405180910390a350565b60016020528060005260406000206000915090505481565b600060149054906101000a900460ff1681565b60008060028111156109e557fe5b600060149054906101000a900460ff166002811115610a0057fe5b141515610a75576040517f08c379a000000000000000000000000000000000000000000000000000000000815260040180806020018281038252601b8152602001807f436f6e7472616374206973206e6f74206f7065726174696f6e616c000000000081525060200191505060405180910390fd5b600073ffffffffffffffffffffffffffffffffffffffff168373ffffffffffffffffffffffffffffffffffffffff1614151515610b1a576040517f08c379a000000000000000000000000000000000000000000000000000000000815260040180806020018281038252601a8152602001807f4d7573742070726f766964652074776f2061646472657373657300000000000081525060200191505060405180910390fd5b600073ffffffffffffffffffffffffffffffffffffffff168273ffffffffffffffffffffffffffffffffffffffff1614151515610bbf576040517f08c379a000000000000000000000000000000000000000000000000000000000815260040180806020018281038252601a8152602001807f4d7573742070726f766964652074776f2061646472657373657300000000000081525060200191505060405180910390fd5b8173ffffffffffffffffffffffffffffffffffffffff168373ffffffffffffffffffffffffffffffffffffffff1614151515610c89576040517f08c379a00000000000000000000000000000000000000000000000000000000081526004018080602001828103825260228152602001807f4d7573742070726f76696465203220646966666572656e74206164647265737381526020017f657300000000000000000000000000000000000000000000000000000000000081525060400191505060405180910390fd5b6000600234811515610c9757fe5b06141515610ced5760018060003373ffffffffffffffffffffffffffffffffffffffff1673ffffffffffffffffffffffffffffffffffffffff168152602001908152602001600020600082825401925050819055505b600234811515610cf957fe5b04905080600160008573ffffffffffffffffffffffffffffffffffffffff1673ffffffffffffffffffffffffffffffffffffffff1681526020019081526020016000206000828254019250508190555080600160008473ffffffffffffffffffffffffffffffffffffffff1673ffffffffffffffffffffffffffffffffffffffff168152602001908152602001600020600082825401925050819055508173ffffffffffffffffffffffffffffffffffffffff168373ffffffffffffffffffffffffffffffffffffffff163373ffffffffffffffffffffffffffffffffffffffff167f416c158be2b75667bf3d5ffe6837e8e3d4754dd39911a82aa9e90cee282036f5346040518082815260200191505060405180910390a45050505600a165627a7a72305820882705a0a5481bcc75c150bf16fc4de3d51cd1fffd6aa9b524f5d5082f7b8ff70029",
  "source": "pragma solidity 0.4.24;\n\nimport \"./Stoppable.sol\";\nimport \"./SafeMath.sol\";\n\ncontract Splitter is Stoppable {\n\n    //Using the SafeMath library\n    using SafeMath for uint;\n\n    //All events that can be logged\n    event LogDeposit(address indexed sender, uint256 depositAmount, address indexed receiver1, address indexed receiver2);\n    event LogWithdrawFunds(address indexed sender, uint amount);\n\n    //Mapping of address to balance\n    mapping(address => uint256) public balanceReceiver;\n\n    //Function that allows UI to query the balance of the contract\n    function getContractBalance() public view returns (uint256) {\n        return address(this).balance;\n    }   \n    \n    //Allows the message sender to send Ether to the contract and have it assigned to the balance of two receiver addresses\n    function deposit(address _receiver1, address _receiver2) public payable {\n        uint256 half;\n        // Verify that the contract is operational before continueing\n        require(state == SplitterState.Operational, \"Contract is not operational\");\n        // Verify non empty addresses have been provided\n        require(_receiver1 != address(0), \"Must provide two addresses\");\n        require(_receiver2 != address(0), \"Must provide two addresses\");\n        // Verify receiver 1 address is not equal to receiver2 address  \n        require(_receiver1 != _receiver2, \"Must provide 2 different addresses\");\n        // If the msg.value is an uneven number\n        if (msg.value % 2 != 0) {\n            // Credit 1 wei to the address of the sender\n            balanceReceiver[msg.sender] += 1; \n        }\n        // Remaining msg.value to be split between _receiver1 and _receiver2\n        // If the msg.value is an uneven number, msg.value will be divided by two and the remainder will disappear\n        half = msg.value / 2;\n        balanceReceiver[_receiver1] += half;\n        balanceReceiver[_receiver2] += half;\n        emit LogDeposit(msg.sender, msg.value, _receiver1, _receiver2);\n    }\n\n    //Allow the message sender to retrieve his/her funds\n    function withdrawFunds() public {\n        // Verify that the contract isn't paused\n        require(state != SplitterState.Paused, \"Contract must be operational or deactivated to be able to withdraw\");\n        // Set the balance of the msg.sender to 0\n        uint256 amountForWithdrawal = balanceReceiver[msg.sender];\n        balanceReceiver[msg.sender] = 0;\n        // Transfer the balance to the msg.sender\n        address(msg.sender).transfer(amountForWithdrawal);\n        // Create logs\n        emit LogWithdrawFunds (msg.sender, amountForWithdrawal);\n    }    \n    \n    //Fallback function which rejects funds sent to the contract address if sender is not the owner\n    function() public { \n        revert(\"Fallback function triggered\"); \n    }  \n}",
  "sourcePath": "/home/richard/workspace/Splitter/contracts/Splitter.sol",
  "compiler": {
    "name": "solc",
    "version": "0.4.24+commit.e67f0147.Emscripten.clang"
  },
  "schemaVersion": "2.0.1",
  "updatedAt": "2019-01-27T03:23:40.161Z"
}