{
  "contractName": "Splitter",
  "abi": [
    {
      "constant": true,
      "inputs": [],
      "name": "carol",
      "outputs": [
        {
          "name": "",
          "type": "address"
        }
      ],
      "payable": false,
      "stateMutability": "view",
      "type": "function"
    },
    {
      "constant": true,
      "inputs": [],
      "name": "bob",
      "outputs": [
        {
          "name": "",
          "type": "address"
        }
      ],
      "payable": false,
      "stateMutability": "view",
      "type": "function"
    },
    {
      "constant": true,
      "inputs": [],
      "name": "deposit",
      "outputs": [
        {
          "name": "",
          "type": "uint256"
        }
      ],
      "payable": false,
      "stateMutability": "view",
      "type": "function"
    },
    {
      "constant": true,
      "inputs": [],
      "name": "alice",
      "outputs": [
        {
          "name": "",
          "type": "address"
        }
      ],
      "payable": false,
      "stateMutability": "view",
      "type": "function"
    },
    {
      "inputs": [],
      "payable": true,
      "stateMutability": "payable",
      "type": "constructor"
    },
    {
      "payable": true,
      "stateMutability": "payable",
      "type": "fallback"
    },
    {
      "anonymous": false,
      "inputs": [
        {
          "indexed": false,
          "name": "sender",
          "type": "address"
        },
        {
          "indexed": false,
          "name": "deposit",
          "type": "uint256"
        }
      ],
      "name": "LogDepositEther",
      "type": "event"
    },
    {
      "anonymous": false,
      "inputs": [
        {
          "indexed": false,
          "name": "balance",
          "type": "uint256"
        },
        {
          "indexed": false,
          "name": "amountTransfered",
          "type": "uint256"
        },
        {
          "indexed": false,
          "name": "bob",
          "type": "address"
        },
        {
          "indexed": false,
          "name": "bobBalance",
          "type": "uint256"
        },
        {
          "indexed": false,
          "name": "carol",
          "type": "address"
        },
        {
          "indexed": false,
          "name": "carolBalance",
          "type": "uint256"
        }
      ],
      "name": "LogSplitContractBalance",
      "type": "event"
    },
    {
      "constant": true,
      "inputs": [],
      "name": "getBalance",
      "outputs": [
        {
          "name": "",
          "type": "uint256"
        }
      ],
      "payable": false,
      "stateMutability": "view",
      "type": "function"
    },
    {
      "constant": true,
      "inputs": [],
      "name": "getBalanceAlice",
      "outputs": [
        {
          "name": "",
          "type": "uint256"
        }
      ],
      "payable": false,
      "stateMutability": "view",
      "type": "function"
    },
    {
      "constant": true,
      "inputs": [],
      "name": "getBalanceBob",
      "outputs": [
        {
          "name": "",
          "type": "uint256"
        }
      ],
      "payable": false,
      "stateMutability": "view",
      "type": "function"
    },
    {
      "constant": true,
      "inputs": [],
      "name": "getBalanceCarol",
      "outputs": [
        {
          "name": "",
          "type": "uint256"
        }
      ],
      "payable": false,
      "stateMutability": "view",
      "type": "function"
    },
    {
      "constant": false,
      "inputs": [],
      "name": "depositEther",
      "outputs": [
        {
          "name": "",
          "type": "uint256"
        }
      ],
      "payable": true,
      "stateMutability": "payable",
      "type": "function"
    },
    {
      "constant": false,
      "inputs": [],
      "name": "splitContractBalance",
      "outputs": [],
      "payable": true,
      "stateMutability": "payable",
      "type": "function"
    }
  ],
  "bytecode": "0x6080604052739553baa8e83950876a1a0fe52093c031a4724c336000806101000a81548173ffffffffffffffffffffffffffffffffffffffff021916908373ffffffffffffffffffffffffffffffffffffffff16021790555073b3b140aa48800c455c013f5504e6532e2d36cfc6600160006101000a81548173ffffffffffffffffffffffffffffffffffffffff021916908373ffffffffffffffffffffffffffffffffffffffff16021790555073d449e6a9de1027d9ac9cb1a492468348741461be600260006101000a81548173ffffffffffffffffffffffffffffffffffffffff021916908373ffffffffffffffffffffffffffffffffffffffff1602179055506108af806101116000396000f3006080604052600436106100a4576000357c0100000000000000000000000000000000000000000000000000000000900463ffffffff16806312065fe0146100a657806332c6e37a146100d15780638b930f15146100db57806398ea5fca14610132578063c09cec7714610150578063cc666496146101a7578063d0e30db0146101d2578063d734426c146101fd578063fb47e3a214610228578063fb79debe1461027f575b005b3480156100b257600080fd5b506100bb6102aa565b6040518082815260200191505060405180910390f35b6100d96102c9565b005b3480156100e757600080fd5b506100f061060e565b604051808273ffffffffffffffffffffffffffffffffffffffff1673ffffffffffffffffffffffffffffffffffffffff16815260200191505060405180910390f35b61013a610634565b6040518082815260200191505060405180910390f35b34801561015c57600080fd5b50610165610770565b604051808273ffffffffffffffffffffffffffffffffffffffff1673ffffffffffffffffffffffffffffffffffffffff16815260200191505060405180910390f35b3480156101b357600080fd5b506101bc610796565b6040518082815260200191505060405180910390f35b3480156101de57600080fd5b506101e76107d7565b6040518082815260200191505060405180910390f35b34801561020957600080fd5b506102126107dd565b6040518082815260200191505060405180910390f35b34801561023457600080fd5b5061023d61081e565b604051808273ffffffffffffffffffffffffffffffffffffffff1673ffffffffffffffffffffffffffffffffffffffff16815260200191505060405180910390f35b34801561028b57600080fd5b50610294610843565b6040518082815260200191505060405180910390f35b60003073ffffffffffffffffffffffffffffffffffffffff1631905090565b60008060009054906101000a900473ffffffffffffffffffffffffffffffffffffffff1673ffffffffffffffffffffffffffffffffffffffff163373ffffffffffffffffffffffffffffffffffffffff1614151561038f576040517f08c379a00000000000000000000000000000000000000000000000000000000081526004018080602001828103825260208152602001807f4f6e6c7920416c6963652063616e2073706c6974207468652062616c616e636581525060200191505060405180910390fd5b60023073ffffffffffffffffffffffffffffffffffffffff16318115156103b257fe5b049050600160009054906101000a900473ffffffffffffffffffffffffffffffffffffffff1673ffffffffffffffffffffffffffffffffffffffff166108fc829081150290604051600060405180830381858888f1935050505015801561041d573d6000803e3d6000fd5b50600260009054906101000a900473ffffffffffffffffffffffffffffffffffffffff1673ffffffffffffffffffffffffffffffffffffffff166108fc829081150290604051600060405180830381858888f19350505050158015610486573d6000803e3d6000fd5b507f4ce84cb57afdf7002fe68385f7ac7292f0bf7402fc27454e746ac311631c3c8e3073ffffffffffffffffffffffffffffffffffffffff163182600160009054906101000a900473ffffffffffffffffffffffffffffffffffffffff16600160009054906101000a900473ffffffffffffffffffffffffffffffffffffffff1673ffffffffffffffffffffffffffffffffffffffff1631600260009054906101000a900473ffffffffffffffffffffffffffffffffffffffff16600260009054906101000a900473ffffffffffffffffffffffffffffffffffffffff1673ffffffffffffffffffffffffffffffffffffffff1631604051808781526020018681526020018573ffffffffffffffffffffffffffffffffffffffff1673ffffffffffffffffffffffffffffffffffffffff1681526020018481526020018373ffffffffffffffffffffffffffffffffffffffff1673ffffffffffffffffffffffffffffffffffffffff168152602001828152602001965050505050505060405180910390a150565b600260009054906101000a900473ffffffffffffffffffffffffffffffffffffffff1681565b60008060009054906101000a900473ffffffffffffffffffffffffffffffffffffffff1673ffffffffffffffffffffffffffffffffffffffff163373ffffffffffffffffffffffffffffffffffffffff161415156106fa576040517f08c379a000000000000000000000000000000000000000000000000000000000815260040180806020018281038252601c8152602001807f4f6e6c7920416c6963652063616e206465706f7369742045746865720000000081525060200191505060405180910390fd5b7f10dbe332619683814acf7c1cd13290910fb3f8ea58c00dba740cb822df5fdf533334604051808373ffffffffffffffffffffffffffffffffffffffff1673ffffffffffffffffffffffffffffffffffffffff1681526020018281526020019250505060405180910390a1346003819055905090565b600160009054906101000a900473ffffffffffffffffffffffffffffffffffffffff1681565b6000600260009054906101000a900473ffffffffffffffffffffffffffffffffffffffff1673ffffffffffffffffffffffffffffffffffffffff1631905090565b60035481565b6000600160009054906101000a900473ffffffffffffffffffffffffffffffffffffffff1673ffffffffffffffffffffffffffffffffffffffff1631905090565b6000809054906101000a900473ffffffffffffffffffffffffffffffffffffffff1681565b60008060009054906101000a900473ffffffffffffffffffffffffffffffffffffffff1673ffffffffffffffffffffffffffffffffffffffff16319050905600a165627a7a723058202ecd492a8f1f13fa20ca5cd30940805baec9dfd224658563ae31e112c0925c4b0029",
  "source": "pragma solidity 0.4.24;\n\ncontract Splitter {\n    \n    address public alice;\n    address public bob;\n    address public carol;\n    uint256 public deposit;\n    \n    event LogDepositEther(address sender, uint256 deposit);\n    event LogSplitContractBalance(uint256 balance, uint256 amountTransfered, address bob, uint256 bobBalance, address carol, uint256 carolBalance);\n\t\n    constructor() public payable {\n        alice = 0x9553bAA8E83950876A1a0fe52093c031a4724C33;\n        bob = 0xb3B140AA48800c455c013f5504E6532e2D36cfc6;\n        carol = 0xd449e6a9de1027D9ac9Cb1A492468348741461Be;\n    }\n\t\n    function getBalance() public view returns (uint256) {\n        return address(this).balance;\n    }\n    \n    function getBalanceAlice() public view returns (uint256) {\n        return address(alice).balance;\n    }\n    \n    function getBalanceBob() public view returns (uint256) {\n        return address(bob).balance;\n    }\n    \n    function getBalanceCarol() public view returns (uint256) {\n        return address(carol).balance;\n    }\n    \n    function depositEther() public payable returns (uint256) {\n        require(msg.sender == alice, \"Only Alice can deposit Ether\");\n        emit LogDepositEther(msg.sender, msg.value);\n        return deposit = msg.value;\n    }\n    \n    function splitContractBalance() public payable {\n        require(msg.sender == alice, \"Only Alice can split the balance\");\n        uint256 halfBalance = address(this).balance / 2;\n        address(bob).transfer(halfBalance);\n        address(carol).transfer(halfBalance);\n        emit LogSplitContractBalance(address(this).balance, halfBalance, bob, bob.balance, carol, carol.balance);\n    }\n    \n    function() external payable {\n    }\n}",
  "sourcePath": "/home/richard/workspace/Splitter/contracts/Splitter.sol",
  "compiler": {
    "name": "solc",
    "version": "0.4.24+commit.e67f0147.Emscripten.clang"
  },
  "schemaVersion": "2.0.1",
  "updatedAt": "2018-12-02T22:08:06.447Z"
}