{
  "contractName": "Stoppable",
  "abi": [
    {
      "constant": true,
      "inputs": [],
      "name": "owner",
      "outputs": [
        {
          "name": "",
          "type": "address"
        }
      ],
      "payable": false,
      "stateMutability": "view",
      "type": "function"
    },
    {
      "constant": true,
      "inputs": [],
      "name": "state",
      "outputs": [
        {
          "name": "",
          "type": "uint8"
        }
      ],
      "payable": false,
      "stateMutability": "view",
      "type": "function"
    },
    {
      "inputs": [],
      "payable": false,
      "stateMutability": "nonpayable",
      "type": "constructor"
    },
    {
      "payable": false,
      "stateMutability": "nonpayable",
      "type": "fallback"
    },
    {
      "anonymous": false,
      "inputs": [
        {
          "indexed": true,
          "name": "sender",
          "type": "address"
        },
        {
          "indexed": true,
          "name": "newState",
          "type": "uint8"
        }
      ],
      "name": "LogSetState",
      "type": "event"
    },
    {
      "constant": false,
      "inputs": [
        {
          "name": "newState",
          "type": "uint8"
        }
      ],
      "name": "setState",
      "outputs": [],
      "payable": false,
      "stateMutability": "nonpayable",
      "type": "function"
    }
  ],
  "bytecode": "0x608060405234801561001057600080fd5b50336000806101000a81548173ffffffffffffffffffffffffffffffffffffffff021916908373ffffffffffffffffffffffffffffffffffffffff16021790555060008060146101000a81548160ff0219169083600281111561006f57fe5b021790555061043e806100836000396000f300608060405260043610610057576000357c0100000000000000000000000000000000000000000000000000000000900463ffffffff16806356de96db146100d25780638da5cb5b14610102578063c19d93fb14610159575b34801561006357600080fd5b506040517f08c379a000000000000000000000000000000000000000000000000000000000815260040180806020018281038252601b8152602001807f46616c6c6261636b2066756e6374696f6e20747269676765726564000000000081525060200191505060405180910390fd5b3480156100de57600080fd5b50610100600480360381019080803560ff169060200190929190505050610192565b005b34801561010e57600080fd5b506101176103da565b604051808273ffffffffffffffffffffffffffffffffffffffff1673ffffffffffffffffffffffffffffffffffffffff16815260200191505060405180910390f35b34801561016557600080fd5b5061016e6103ff565b6040518082600281111561017e57fe5b60ff16815260200191505060405180910390f35b6000809054906101000a900473ffffffffffffffffffffffffffffffffffffffff1673ffffffffffffffffffffffffffffffffffffffff163373ffffffffffffffffffffffffffffffffffffffff1614151561027c576040517f08c379a00000000000000000000000000000000000000000000000000000000081526004018080602001828103825260228152602001807f4f6e6c79206f776e65722063616e20706572666f726d2074686973206163746981526020017f6f6e00000000000000000000000000000000000000000000000000000000000081525060400191505060405180910390fd5b60028081111561028857fe5b600060149054906101000a900460ff1660028111156102a357fe5b14151515610365576040517f08c379a00000000000000000000000000000000000000000000000000000000081526004018080602001828103825260438152602001807f54686520636f6e747261637420697320646561637469766174656420616e642081526020017f63616e2774206265206d616465206f7065726174696f6e616c206f722070617581526020017f736564000000000000000000000000000000000000000000000000000000000081525060600191505060405180910390fd5b80600060146101000a81548160ff0219169083600281111561038357fe5b021790555080600281111561039457fe5b3373ffffffffffffffffffffffffffffffffffffffff167f8443aae512b274bfa1e5d65661bd8f0b4ffbc66eee3556711cce411fcf30478460405160405180910390a350565b6000809054906101000a900473ffffffffffffffffffffffffffffffffffffffff1681565b600060149054906101000a900460ff16815600a165627a7a7230582009b87fae5cd906d9ef031ca46178132a52a2288ac8cc67a74092b10fea8b24f40029",
  "source": "pragma solidity 0.4.24;\n\nimport  \"./Owned.sol\";\n\ncontract Stoppable is Owned {\n     \n    //Global variables \n    SplitterState public state; \n    \n    //Defining the possible states of the contract\n    enum SplitterState {\n        Operational,\n        Paused,\n        Deactivated\n    }\n    \n    //Constructor, setting initial state upon contract creation\n    constructor() public {\n        state = SplitterState.Operational;\n    }  \n    \n    //Event logs for when a state changes\n    event LogSetState(address indexed sender, SplitterState indexed newState);\n    \n    //Function that allows owner to change the state of the contract\n    function setState(SplitterState newState) public onlyOwner {\n        //Verify if the state is Deactivated, if so, don't allow update to the state;\n        require(state != SplitterState.Deactivated, \"The contract is deactivated and can't be made operational or paused\");\n        //Set the state of the Contract\n        state = newState;\n        //Create logs\n        emit LogSetState(msg.sender, newState);\n    }\n    \n    //Fallback function which rejects funds sent to the contract address if sender is not the owner\n    function() public { \n        revert(\"Fallback function triggered\"); \n    }  \n}",
  "sourcePath": "/home/richard/workspace/Splitter/contracts/Stoppable.sol",
  "compiler": {
    "name": "solc",
    "version": "0.4.24+commit.e67f0147.Emscripten.clang"
  },
  "schemaVersion": "2.0.1",
  "updatedAt": "2019-01-21T03:56:37.426Z"
}